{
  "contractName": "Contract_Sertifikat",
  "abi": [
    {
      "inputs": [],
      "payable": false,
      "stateMutability": "nonpayable",
      "type": "constructor"
    },
    {
      "anonymous": false,
      "inputs": [
        {
          "indexed": false,
          "internalType": "uint256",
          "name": "ids",
          "type": "uint256"
        },
        {
          "indexed": false,
          "internalType": "uint256",
          "name": "nik",
          "type": "uint256"
        },
        {
          "indexed": false,
          "internalType": "uint256",
          "name": "no_user",
          "type": "uint256"
        },
        {
          "indexed": false,
          "internalType": "string",
          "name": "alamat",
          "type": "string"
        },
        {
          "indexed": false,
          "internalType": "string",
          "name": "kota",
          "type": "string"
        },
        {
          "indexed": false,
          "internalType": "string",
          "name": "prov",
          "type": "string"
        },
        {
          "indexed": false,
          "internalType": "bytes32",
          "name": "hash_sertifikat",
          "type": "bytes32"
        },
        {
          "indexed": false,
          "internalType": "address payable",
          "name": "owner",
          "type": "address"
        }
      ],
      "name": "SertifikatCreated",
      "type": "event"
    },
    {
      "anonymous": false,
      "inputs": [
        {
          "indexed": false,
          "internalType": "uint256",
          "name": "id",
          "type": "uint256"
        },
        {
          "indexed": false,
          "internalType": "string",
          "name": "name",
          "type": "string"
        },
        {
          "indexed": false,
          "internalType": "uint256",
          "name": "no_user",
          "type": "uint256"
        },
        {
          "indexed": false,
          "internalType": "address payable",
          "name": "owner",
          "type": "address"
        }
      ],
      "name": "UserCreated",
      "type": "event"
    },
    {
      "constant": true,
      "inputs": [],
      "name": "name",
      "outputs": [
        {
          "internalType": "string",
          "name": "",
          "type": "string"
        }
      ],
      "payable": false,
      "stateMutability": "view",
      "type": "function"
    },
    {
      "constant": true,
      "inputs": [],
      "name": "sertifikat_count",
      "outputs": [
        {
          "internalType": "uint256",
          "name": "",
          "type": "uint256"
        }
      ],
      "payable": false,
      "stateMutability": "view",
      "type": "function"
    },
    {
      "constant": true,
      "inputs": [
        {
          "internalType": "uint256",
          "name": "",
          "type": "uint256"
        }
      ],
      "name": "sertifikats",
      "outputs": [
        {
          "internalType": "uint256",
          "name": "ids",
          "type": "uint256"
        },
        {
          "internalType": "uint256",
          "name": "nik",
          "type": "uint256"
        },
        {
          "internalType": "uint256",
          "name": "no_user",
          "type": "uint256"
        },
        {
          "internalType": "string",
          "name": "alamat",
          "type": "string"
        },
        {
          "internalType": "string",
          "name": "kota",
          "type": "string"
        },
        {
          "internalType": "string",
          "name": "prov",
          "type": "string"
        },
        {
          "internalType": "bytes32",
          "name": "hash_sertifikat",
          "type": "bytes32"
        },
        {
          "internalType": "address payable",
          "name": "owner",
          "type": "address"
        }
      ],
      "payable": false,
      "stateMutability": "view",
      "type": "function"
    },
    {
      "constant": true,
      "inputs": [],
      "name": "user_count",
      "outputs": [
        {
          "internalType": "uint256",
          "name": "",
          "type": "uint256"
        }
      ],
      "payable": false,
      "stateMutability": "view",
      "type": "function"
    },
    {
      "constant": true,
      "inputs": [
        {
          "internalType": "uint256",
          "name": "",
          "type": "uint256"
        }
      ],
      "name": "users",
      "outputs": [
        {
          "internalType": "uint256",
          "name": "id",
          "type": "uint256"
        },
        {
          "internalType": "string",
          "name": "name",
          "type": "string"
        },
        {
          "internalType": "uint256",
          "name": "no_user",
          "type": "uint256"
        },
        {
          "internalType": "address payable",
          "name": "owner",
          "type": "address"
        }
      ],
      "payable": false,
      "stateMutability": "view",
      "type": "function"
    },
    {
      "constant": false,
      "inputs": [
        {
          "internalType": "string",
          "name": "_name",
          "type": "string"
        },
        {
          "internalType": "uint256",
          "name": "_no_user",
          "type": "uint256"
        }
      ],
      "name": "createUser",
      "outputs": [],
      "payable": false,
      "stateMutability": "nonpayable",
      "type": "function"
    },
    {
      "constant": false,
      "inputs": [
        {
          "internalType": "uint256",
          "name": "_nik",
          "type": "uint256"
        },
        {
          "internalType": "uint256",
          "name": "_no_user",
          "type": "uint256"
        },
        {
          "internalType": "string",
          "name": "_alamat",
          "type": "string"
        },
        {
          "internalType": "string",
          "name": "_kota",
          "type": "string"
        },
        {
          "internalType": "string",
          "name": "_prov",
          "type": "string"
        }
      ],
      "name": "createSertif",
      "outputs": [],
      "payable": false,
      "stateMutability": "nonpayable",
      "type": "function"
    }
  ],
  "bytecode": "0x6080604052600060015560006002553480156200001b57600080fd5b506040518060400160405280601981526020017f536572746966696b617420566f74696e67204469676974616c00000000000000815250600090805190602001906200006992919062000070565b506200011f565b828054600181600116156101000203166002900490600052602060002090601f016020900481019282601f10620000b357805160ff1916838001178555620000e4565b82800160010185558215620000e4579182015b82811115620000e3578251825591602001919060010190620000c6565b5b509050620000f39190620000f7565b5090565b6200011c91905b8082111562000118576000816000905550600101620000fe565b5090565b90565b6112cb806200012f6000396000f3fe608060405234801561001057600080fd5b506004361061007d5760003560e01c8063365b98b21161005b578063365b98b2146101e8578063618f84df146102d0578063a8d0c0c5146104cd578063bb805f691461069b5761007d565b8063033819801461008257806306fdde03146100a0578063121ef24314610123575b600080fd5b61008a6106b9565b6040518082815260200191505060405180910390f35b6100a86106bf565b6040518080602001828103825283818151815260200191508051906020019080838360005b838110156100e85780820151818401526020810190506100cd565b50505050905090810190601f1680156101155780820380516001836020036101000a031916815260200191505b509250505060405180910390f35b6101e66004803603604081101561013957600080fd5b810190808035906020019064010000000081111561015657600080fd5b82018360208201111561016857600080fd5b8035906020019184600183028401116401000000008311171561018a57600080fd5b91908080601f016020809104026020016040519081016040528093929190818152602001838380828437600081840152601f19601f8201169050808301925050505050505091929192908035906020019092919050505061075d565b005b610214600480360360208110156101fe57600080fd5b81019080803590602001909291905050506109be565b60405180858152602001806020018481526020018373ffffffffffffffffffffffffffffffffffffffff1673ffffffffffffffffffffffffffffffffffffffff168152602001828103825285818151815260200191508051906020019080838360005b83811015610292578082015181840152602081019050610277565b50505050905090810190601f1680156102bf5780820380516001836020036101000a031916815260200191505b509550505050505060405180910390f35b6104cb600480360360a08110156102e657600080fd5b8101908080359060200190929190803590602001909291908035906020019064010000000081111561031757600080fd5b82018360208201111561032957600080fd5b8035906020019184600183028401116401000000008311171561034b57600080fd5b91908080601f016020809104026020016040519081016040528093929190818152602001838380828437600081840152601f19601f820116905080830192505050505050509192919290803590602001906401000000008111156103ae57600080fd5b8201836020820111156103c057600080fd5b803590602001918460018302840111640100000000831117156103e257600080fd5b91908080601f016020809104026020016040519081016040528093929190818152602001838380828437600081840152601f19601f8201169050808301925050505050505091929192908035906020019064010000000081111561044557600080fd5b82018360208201111561045757600080fd5b8035906020019184600183028401116401000000008311171561047957600080fd5b91908080601f016020809104026020016040519081016040528093929190818152602001838380828437600081840152601f19601f820116905080830192505050505050509192919290505050610aa6565b005b6104f9600480360360208110156104e357600080fd5b8101908080359060200190929190505050610ef5565b604051808981526020018881526020018781526020018060200180602001806020018681526020018573ffffffffffffffffffffffffffffffffffffffff1673ffffffffffffffffffffffffffffffffffffffff168152602001848103845289818151815260200191508051906020019080838360005b8381101561058b578082015181840152602081019050610570565b50505050905090810190601f1680156105b85780820380516001836020036101000a031916815260200191505b50848103835288818151815260200191508051906020019080838360005b838110156105f15780820151818401526020810190506105d6565b50505050905090810190601f16801561061e5780820380516001836020036101000a031916815260200191505b50848103825287818151815260200191508051906020019080838360005b8381101561065757808201518184015260208101905061063c565b50505050905090810190601f1680156106845780820380516001836020036101000a031916815260200191505b509b50505050505050505050505060405180910390f35b6106a3611125565b6040518082815260200191505060405180910390f35b60025481565b60008054600181600116156101000203166002900480601f0160208091040260200160405190810160405280929190818152602001828054600181600116156101000203166002900480156107555780601f1061072a57610100808354040283529160200191610755565b820191906000526020600020905b81548152906001019060200180831161073857829003601f168201915b505050505081565b6000809050600083511161077057600080fd5b6000821161077d57600080fd5b60008090505b6005805490508110156107c157826005828154811061079e57fe5b906000526020600020015414156107b457600191505b8080600101915050610783565b506000151581151514156109b9576005829080600181540180825580915050906001820390600052602060002001600090919290919091505550600160008154809291906001019190505550604051806080016040528060015481526020018481526020018381526020013373ffffffffffffffffffffffffffffffffffffffff168152506003600060015481526020019081526020016000206000820151816000015560208201518160010190805190602001906108819291906111f1565b506040820151816002015560608201518160030160006101000a81548173ffffffffffffffffffffffffffffffffffffffff021916908373ffffffffffffffffffffffffffffffffffffffff1602179055509050507ff395086492a18c06b960e647505589b3661da0c61f9b08179d6809beb0d5023360015484843360405180858152602001806020018481526020018373ffffffffffffffffffffffffffffffffffffffff1673ffffffffffffffffffffffffffffffffffffffff168152602001828103825285818151815260200191508051906020019080838360005b8381101561097b578082015181840152602081019050610960565b50505050905090810190601f1680156109a85780820380516001836020036101000a031916815260200191505b509550505050505060405180910390a15b505050565b6003602052806000526040600020600091509050806000015490806001018054600181600116156101000203166002900480601f016020809104026020016040519081016040528092919081815260200182805460018160011615610100020316600290048015610a705780601f10610a4557610100808354040283529160200191610a70565b820191906000526020600020905b815481529060010190602001808311610a5357829003601f168201915b5050505050908060020154908060030160009054906101000a900473ffffffffffffffffffffffffffffffffffffffff16905084565b6000809050600080905060008711610abd57600080fd5b60008611610aca57600080fd5b6000855111610ad857600080fd5b6000845111610ae657600080fd5b6000835111610af457600080fd5b60008090505b600580549050811015610b38578660058281548110610b1557fe5b90600052602060002001541415610b2b57600191505b8080600101915050610afa565b5060008090505b600680549050811015610b7d578760068281548110610b5a57fe5b90600052602060002001541415610b7057600192505b8080600101915050610b3f565b5060001515821515148015610b96575060011515811515145b15610eec576006879080600181540180825580915050906001820390600052602060002001600090919290919091505550600260008154809291906001019190505550600086880190506000610beb8261112b565b905060405180610100016040528060025481526020018a81526020018981526020018881526020018781526020018681526020018281526020013373ffffffffffffffffffffffffffffffffffffffff168152506004600060025481526020019081526020016000206000820151816000015560208201518160010155604082015181600201556060820151816003019080519060200190610c8e9291906111f1565b506080820151816004019080519060200190610cab9291906111f1565b5060a0820151816005019080519060200190610cc89291906111f1565b5060c0820151816006015560e08201518160070160006101000a81548173ffffffffffffffffffffffffffffffffffffffff021916908373ffffffffffffffffffffffffffffffffffffffff1602179055509050507f0472585b0373ca296d68d17caa21778f8045eb9f071434a45a2c2ecd5449be3b6002548a8a8a8a8a8733604051808981526020018881526020018781526020018060200180602001806020018681526020018573ffffffffffffffffffffffffffffffffffffffff1673ffffffffffffffffffffffffffffffffffffffff168152602001848103845289818151815260200191508051906020019080838360005b83811015610dda578082015181840152602081019050610dbf565b50505050905090810190601f168015610e075780820380516001836020036101000a031916815260200191505b50848103835288818151815260200191508051906020019080838360005b83811015610e40578082015181840152602081019050610e25565b50505050905090810190601f168015610e6d5780820380516001836020036101000a031916815260200191505b50848103825287818151815260200191508051906020019080838360005b83811015610ea6578082015181840152602081019050610e8b565b50505050905090810190601f168015610ed35780820380516001836020036101000a031916815260200191505b509b50505050505050505050505060405180910390a150505b50505050505050565b6004602052806000526040600020600091509050806000015490806001015490806002015490806003018054600181600116156101000203166002900480601f016020809104026020016040519081016040528092919081815260200182805460018160011615610100020316600290048015610fb35780601f10610f8857610100808354040283529160200191610fb3565b820191906000526020600020905b815481529060010190602001808311610f9657829003601f168201915b505050505090806004018054600181600116156101000203166002900480601f0160208091040260200160405190810160405280929190818152602001828054600181600116156101000203166002900480156110515780601f1061102657610100808354040283529160200191611051565b820191906000526020600020905b81548152906001019060200180831161103457829003601f168201915b505050505090806005018054600181600116156101000203166002900480601f0160208091040260200160405190810160405280929190818152602001828054600181600116156101000203166002900480156110ef5780601f106110c4576101008083540402835291602001916110ef565b820191906000526020600020905b8154815290600101906020018083116110d257829003601f168201915b5050505050908060060154908060070160009054906101000a900473ffffffffffffffffffffffffffffffffffffffff16905088565b60015481565b6000600282604051602001808281526020019150506040516020818303038152906040526040518082805190602001908083835b60208310611182578051825260208201915060208101905060208303925061115f565b6001836020036101000a038019825116818451168082178552505050505050905001915050602060405180830381855afa1580156111c4573d6000803e3d6000fd5b5050506040513d60208110156111d957600080fd5b81019080805190602001909291905050509050919050565b828054600181600116156101000203166002900490600052602060002090601f016020900481019282601f1061123257805160ff1916838001178555611260565b82800160010185558215611260579182015b8281111561125f578251825591602001919060010190611244565b5b50905061126d9190611271565b5090565b61129391905b8082111561128f576000816000905550600101611277565b5090565b9056fea265627a7a72315820721095c8376453b65492077d2fbd5beea525aed43956580b71aa50ca0ea0627d64736f6c63430005100032",
  "source": "pragma solidity >=0.4.21 <0.7.0;\n\ncontract Contract_Sertifikat {\n    string public name;\n    uint256 public user_count = 0;\n    uint256 public sertifikat_count = 0;\n    mapping(uint256 => User) public users;\n    mapping(uint256 => Sertifikat) public sertifikats;\n    uint256[] private list_user;\n    uint256[] private list_sertifikat;\n\n    struct User {\n        uint256 id;\n        string name;\n        uint256 no_user;\n        address payable owner;\n    }\n    struct Sertifikat {\n        uint256 ids;\n        uint256 nik;\n        uint256 no_user;\n        string alamat;\n        string kota;\n        string prov;\n        bytes32 hash_sertifikat;\n        address payable owner;\n    }\n    event UserCreated(\n        uint256 id,\n        string name,\n        uint256 no_user,\n        address payable owner\n    );\n    event SertifikatCreated(\n        uint256 ids,\n        uint256 nik,\n        uint256 no_user,\n        string alamat,\n        string kota,\n        string prov,\n        bytes32 hash_sertifikat,\n        address payable owner\n    );\n\n    constructor() public {\n        name = \"Sertifikat Voting Digital\";\n    }\n\n    function createUser(string memory _name, uint256 _no_user) public {\n        bool duplicate = false;\n        // Require a valid name\n        require(bytes(_name).length > 0);\n        // Require a valid price\n        require(_no_user > 0);\n        for (uint256 i = 0; i < list_user.length; i++) {\n            if (list_user[i] == _no_user) {\n                duplicate = true;\n            }\n        }\n        if (duplicate == false) {\n            list_user.push(_no_user);\n            // Increment product count\n            user_count++;\n            // Create the product\n            users[user_count] = User(user_count, _name, _no_user, msg.sender);\n            // Trigger an event\n            emit UserCreated(user_count, _name, _no_user, msg.sender);\n        }\n    }\n\n    function createSertif(\n        uint256 _nik,\n        uint256 _no_user,\n        string memory _alamat,\n        string memory _kota,\n        string memory _prov\n    ) public {\n        bool duplicate = false;\n        bool user_exist = false;\n        require(_nik > 0);\n        require(_no_user > 0);\n        require(bytes(_alamat).length > 0);\n        require(bytes(_kota).length > 0);\n        require(bytes(_prov).length > 0);\n        for (uint256 i = 0; i < list_user.length; i++) {\n            if (list_user[i] == _no_user) {\n                user_exist = true;\n            }\n        }\n        for (uint256 i = 0; i < list_sertifikat.length; i++) {\n            if (list_sertifikat[i] == _nik) {\n                duplicate = true;\n            }\n        }\n        if ((duplicate == false) && (user_exist == true)) {\n            list_sertifikat.push(_nik);\n            sertifikat_count++;\n            uint256 plain_text = _nik + _no_user;\n            bytes32 _hash_sertifikat = hash(plain_text);\n            sertifikats[sertifikat_count] = Sertifikat(\n                sertifikat_count,\n                _nik,\n                _no_user,\n                _alamat,\n                _kota,\n                _prov,\n                _hash_sertifikat,\n                msg.sender\n            );\n            emit SertifikatCreated(\n                sertifikat_count,\n                _nik,\n                _no_user,\n                _alamat,\n                _kota,\n                _prov,\n                _hash_sertifikat,\n                msg.sender\n            );\n        }\n    }\n\n    function hash(uint256 plain) private view returns (bytes32) {\n        return sha256(abi.encodePacked(plain));\n    }\n}\n",
  "sourcePath": "D:\\Coll\\TA2020\\darimega\\New folder\\BU 19des (1)\\sertifikat_react\\contracts\\Contract_Sertifikat.sol",
  "compiler": {
    "name": "solc",
    "version": "0.5.16+commit.9c3226ce.Emscripten.clang"
  },
  "schemaVersion": "3.4.3",
  "updatedAt": "2021-12-21T13:06:16.432Z",
  "devdoc": {
    "methods": {}
  },
  "userdoc": {
    "methods": {}
  }
}